{
  "contractName": "SimpleStorage",
  "abi": [
    {
      "inputs": [
        {
          "internalType": "uint256",
          "name": "x",
          "type": "uint256"
        }
      ],
      "name": "set",
      "outputs": [],
      "stateMutability": "nonpayable",
      "type": "function"
    },
    {
      "inputs": [],
      "name": "get",
      "outputs": [
        {
          "internalType": "uint256",
          "name": "",
          "type": "uint256"
        }
      ],
      "stateMutability": "view",
      "type": "function"
    },
    {
      "inputs": [
        {
          "internalType": "uint256",
          "name": "n",
          "type": "uint256"
        }
      ],
      "name": "increment",
      "outputs": [],
      "stateMutability": "nonpayable",
      "type": "function"
    },
    {
      "inputs": [
        {
          "internalType": "uint256",
          "name": "n",
          "type": "uint256"
        }
      ],
      "name": "decrement",
      "outputs": [],
      "stateMutability": "nonpayable",
      "type": "function"
    }
  ],
  "bytecode": "0x608060405234801561001057600080fd5b5061015e806100206000396000f3fe608060405234801561001057600080fd5b506004361061004c5760003560e01c80633a9ebefd1461005157806360fe47b11461007f5780636d4ce63c146100ad5780637cf5dab0146100cb575b600080fd5b61007d6004803603602081101561006757600080fd5b81019080803590602001909291905050506100f9565b005b6100ab6004803603602081101561009557600080fd5b8101908080359060200190929190505050610107565b005b6100b5610111565b6040518082815260200191505060405180910390f35b6100f7600480360360208110156100e157600080fd5b810190808035906020019092919050505061011a565b005b806000540360008190555050565b8060008190555050565b60008054905090565b80600054016000819055505056fea264697066735822122024ccf2df5983f17665ddff34872759244167d2061d030888bf9252459e9661e064736f6c63430007010033",
  "immutableReferences": {},
  "source": "// SPDX-License-Identifier: MIT\r\n\r\npragma solidity ^0.7.0;\r\n\r\ncontract SimpleStorage {\r\n    uint storedData;\r\n\r\n    function set(uint x) public {\r\n        storedData = x;\r\n    }\r\n\r\n    function get() view public returns (uint) {\r\n        return storedData;\r\n    }\r\n    \r\n    function increment (uint n) public {\r\n        storedData = storedData + n;\r\n        return;\r\n    }\r\n    \r\n    function decrement (uint n) public {\r\n        storedData = storedData - n;\r\n        return;\r\n    }\r\n}",
  "sourcePath": "C:/work/blockchain_course/semester2/design_patterns/signed_transactions/smartContract/contracts/SimpleStorage.sol",
  "compiler": {
    "name": "solc",
    "version": "0.7.1+commit.f4a555be.Emscripten.clang"
  },
  "schemaVersion": "3.3.3",
  "updatedAt": "2021-02-10T20:37:36.481Z",
  "devdoc": {
    "kind": "dev",
    "methods": {},
    "version": 1
  },
  "userdoc": {
    "kind": "user",
    "methods": {},
    "version": 1
  }
}